{
  "_format": "hh-sol-artifact-1",
  "contractName": "FakturaDutch",
  "sourceName": "contracts/dutch/FakturaDutch.sol",
  "abi": [
    {
      "anonymous": false,
      "inputs": [
        {
          "indexed": false,
          "internalType": "address",
          "name": "previousAdmin",
          "type": "address"
        },
        {
          "indexed": false,
          "internalType": "address",
          "name": "newAdmin",
          "type": "address"
        }
      ],
      "name": "AdminChanged",
      "type": "event"
    },
    {
      "anonymous": false,
      "inputs": [
        {
          "indexed": true,
          "internalType": "address",
          "name": "owner",
          "type": "address"
        },
        {
          "indexed": true,
          "internalType": "address",
          "name": "approved",
          "type": "address"
        },
        {
          "indexed": true,
          "internalType": "uint256",
          "name": "tokenId",
          "type": "uint256"
        }
      ],
      "name": "Approval",
      "type": "event"
    },
    {
      "anonymous": false,
      "inputs": [
        {
          "indexed": true,
          "internalType": "address",
          "name": "owner",
          "type": "address"
        },
        {
          "indexed": true,
          "internalType": "address",
          "name": "operator",
          "type": "address"
        },
        {
          "indexed": false,
          "internalType": "bool",
          "name": "approved",
          "type": "bool"
        }
      ],
      "name": "ApprovalForAll",
      "type": "event"
    },
    {
      "anonymous": false,
      "inputs": [
        {
          "indexed": true,
          "internalType": "address",
          "name": "beacon",
          "type": "address"
        }
      ],
      "name": "BeaconUpgraded",
      "type": "event"
    },
    {
      "anonymous": false,
      "inputs": [
        {
          "indexed": true,
          "internalType": "address",
          "name": "previousOwner",
          "type": "address"
        },
        {
          "indexed": true,
          "internalType": "address",
          "name": "newOwner",
          "type": "address"
        }
      ],
      "name": "OwnershipTransferred",
      "type": "event"
    },
    {
      "anonymous": false,
      "inputs": [
        {
          "indexed": true,
          "internalType": "address",
          "name": "from",
          "type": "address"
        },
        {
          "indexed": true,
          "internalType": "address",
          "name": "to",
          "type": "address"
        },
        {
          "indexed": true,
          "internalType": "uint256",
          "name": "tokenId",
          "type": "uint256"
        }
      ],
      "name": "Transfer",
      "type": "event"
    },
    {
      "anonymous": false,
      "inputs": [
        {
          "indexed": true,
          "internalType": "address",
          "name": "implementation",
          "type": "address"
        }
      ],
      "name": "Upgraded",
      "type": "event"
    },
    {
      "inputs": [],
      "name": "_tokenIdCounter",
      "outputs": [
        {
          "internalType": "uint256",
          "name": "_value",
          "type": "uint256"
        }
      ],
      "stateMutability": "view",
      "type": "function"
    },
    {
      "inputs": [
        {
          "internalType": "address",
          "name": "to",
          "type": "address"
        },
        {
          "internalType": "uint256",
          "name": "tokenId",
          "type": "uint256"
        }
      ],
      "name": "approve",
      "outputs": [],
      "stateMutability": "nonpayable",
      "type": "function"
    },
    {
      "inputs": [],
      "name": "auction",
      "outputs": [
        {
          "internalType": "uint256",
          "name": "startDate",
          "type": "uint256"
        },
        {
          "internalType": "uint256",
          "name": "decreaseInterval",
          "type": "uint256"
        },
        {
          "internalType": "uint256",
          "name": "decreaseSize",
          "type": "uint256"
        },
        {
          "internalType": "uint256",
          "name": "numDecreases",
          "type": "uint256"
        }
      ],
      "stateMutability": "view",
      "type": "function"
    },
    {
      "inputs": [
        {
          "internalType": "address",
          "name": "owner",
          "type": "address"
        }
      ],
      "name": "balanceOf",
      "outputs": [
        {
          "internalType": "uint256",
          "name": "",
          "type": "uint256"
        }
      ],
      "stateMutability": "view",
      "type": "function"
    },
    {
      "inputs": [
        {
          "internalType": "uint256",
          "name": "tokenId",
          "type": "uint256"
        }
      ],
      "name": "burn",
      "outputs": [],
      "stateMutability": "nonpayable",
      "type": "function"
    },
    {
      "inputs": [],
      "name": "expectedTokenSupply",
      "outputs": [
        {
          "internalType": "uint256",
          "name": "",
          "type": "uint256"
        }
      ],
      "stateMutability": "view",
      "type": "function"
    },
    {
      "inputs": [
        {
          "internalType": "uint256",
          "name": "tokenId",
          "type": "uint256"
        }
      ],
      "name": "getApproved",
      "outputs": [
        {
          "internalType": "address",
          "name": "",
          "type": "address"
        }
      ],
      "stateMutability": "view",
      "type": "function"
    },
    {
      "inputs": [],
      "name": "getFeeConfig",
      "outputs": [
        {
          "internalType": "uint256",
          "name": "",
          "type": "uint256"
        },
        {
          "internalType": "uint256",
          "name": "",
          "type": "uint256"
        }
      ],
      "stateMutability": "view",
      "type": "function"
    },
    {
      "inputs": [
        {
          "internalType": "uint256",
          "name": "n",
          "type": "uint256"
        }
      ],
      "name": "getPrice",
      "outputs": [
        {
          "internalType": "uint256",
          "name": "",
          "type": "uint256"
        }
      ],
      "stateMutability": "view",
      "type": "function"
    },
    {
      "inputs": [],
      "name": "getTokenCreatorPaymentAddress",
      "outputs": [
        {
          "internalType": "address payable",
          "name": "",
          "type": "address"
        }
      ],
      "stateMutability": "view",
      "type": "function"
    },
    {
      "inputs": [],
      "name": "getTreasury",
      "outputs": [
        {
          "internalType": "address payable",
          "name": "",
          "type": "address"
        }
      ],
      "stateMutability": "view",
      "type": "function"
    },
    {
      "inputs": [
        {
          "internalType": "string",
          "name": "name",
          "type": "string"
        },
        {
          "internalType": "string",
          "name": "symbol",
          "type": "string"
        },
        {
          "internalType": "uint256",
          "name": "_mintPrice",
          "type": "uint256"
        },
        {
          "components": [
            {
              "internalType": "uint256",
              "name": "startDate",
              "type": "uint256"
            },
            {
              "internalType": "uint256",
              "name": "decreaseInterval",
              "type": "uint256"
            },
            {
              "internalType": "uint256",
              "name": "decreaseSize",
              "type": "uint256"
            },
            {
              "internalType": "uint256",
              "name": "numDecreases",
              "type": "uint256"
            }
          ],
          "internalType": "struct FakturaDutch.DutchAuction",
          "name": "_auction",
          "type": "tuple"
        },
        {
          "internalType": "uint256",
          "name": "_maxMintPerAddress",
          "type": "uint256"
        },
        {
          "internalType": "uint256",
          "name": "_mintReserve",
          "type": "uint256"
        },
        {
          "internalType": "string",
          "name": "_metadataURI",
          "type": "string"
        },
        {
          "internalType": "uint256",
          "name": "_tokenSupply",
          "type": "uint256"
        },
        {
          "internalType": "address payable",
          "name": "_fakturaPaymentAddress",
          "type": "address"
        },
        {
          "internalType": "address payable",
          "name": "_creatorPaymentAddress",
          "type": "address"
        },
        {
          "internalType": "uint256",
          "name": "_secondaryFakturaFeeBasisPoints",
          "type": "uint256"
        },
        {
          "internalType": "uint256",
          "name": "_secondaryCreatorFeeBasisPoints",
          "type": "uint256"
        }
      ],
      "name": "initialize",
      "outputs": [],
      "stateMutability": "nonpayable",
      "type": "function"
    },
    {
      "inputs": [
        {
          "internalType": "address",
          "name": "owner",
          "type": "address"
        },
        {
          "internalType": "address",
          "name": "operator",
          "type": "address"
        }
      ],
      "name": "isApprovedForAll",
      "outputs": [
        {
          "internalType": "bool",
          "name": "",
          "type": "bool"
        }
      ],
      "stateMutability": "view",
      "type": "function"
    },
    {
      "inputs": [],
      "name": "maxMintPerAddress",
      "outputs": [
        {
          "internalType": "uint256",
          "name": "",
          "type": "uint256"
        }
      ],
      "stateMutability": "view",
      "type": "function"
    },
    {
      "inputs": [
        {
          "internalType": "address",
          "name": "",
          "type": "address"
        }
      ],
      "name": "mintAllowed",
      "outputs": [
        {
          "internalType": "uint256",
          "name": "",
          "type": "uint256"
        }
      ],
      "stateMutability": "view",
      "type": "function"
    },
    {
      "inputs": [],
      "name": "mintPrice",
      "outputs": [
        {
          "internalType": "uint256",
          "name": "",
          "type": "uint256"
        }
      ],
      "stateMutability": "view",
      "type": "function"
    },
    {
      "inputs": [],
      "name": "name",
      "outputs": [
        {
          "internalType": "string",
          "name": "",
          "type": "string"
        }
      ],
      "stateMutability": "view",
      "type": "function"
    },
    {
      "inputs": [],
      "name": "owner",
      "outputs": [
        {
          "internalType": "address",
          "name": "",
          "type": "address"
        }
      ],
      "stateMutability": "view",
      "type": "function"
    },
    {
      "inputs": [
        {
          "internalType": "uint256",
          "name": "tokenId",
          "type": "uint256"
        }
      ],
      "name": "ownerOf",
      "outputs": [
        {
          "internalType": "address",
          "name": "",
          "type": "address"
        }
      ],
      "stateMutability": "view",
      "type": "function"
    },
    {
      "inputs": [],
      "name": "renounceOwnership",
      "outputs": [],
      "stateMutability": "nonpayable",
      "type": "function"
    },
    {
      "inputs": [
        {
          "internalType": "string",
          "name": "uri",
          "type": "string"
        }
      ],
      "name": "reveal",
      "outputs": [],
      "stateMutability": "nonpayable",
      "type": "function"
    },
    {
      "inputs": [
        {
          "internalType": "address",
          "name": "to",
          "type": "address"
        },
        {
          "internalType": "uint256",
          "name": "amount",
          "type": "uint256"
        }
      ],
      "name": "safeBatchMint",
      "outputs": [],
      "stateMutability": "payable",
      "type": "function"
    },
    {
      "inputs": [
        {
          "internalType": "address",
          "name": "to",
          "type": "address"
        }
      ],
      "name": "safeMint",
      "outputs": [],
      "stateMutability": "payable",
      "type": "function"
    },
    {
      "inputs": [
        {
          "internalType": "address",
          "name": "to",
          "type": "address"
        },
        {
          "internalType": "uint256",
          "name": "amount",
          "type": "uint256"
        }
      ],
      "name": "safeReserveMint",
      "outputs": [],
      "stateMutability": "nonpayable",
      "type": "function"
    },
    {
      "inputs": [
        {
          "internalType": "address",
          "name": "from",
          "type": "address"
        },
        {
          "internalType": "address",
          "name": "to",
          "type": "address"
        },
        {
          "internalType": "uint256",
          "name": "tokenId",
          "type": "uint256"
        }
      ],
      "name": "safeTransferFrom",
      "outputs": [],
      "stateMutability": "nonpayable",
      "type": "function"
    },
    {
      "inputs": [
        {
          "internalType": "address",
          "name": "from",
          "type": "address"
        },
        {
          "internalType": "address",
          "name": "to",
          "type": "address"
        },
        {
          "internalType": "uint256",
          "name": "tokenId",
          "type": "uint256"
        },
        {
          "internalType": "bytes",
          "name": "_data",
          "type": "bytes"
        }
      ],
      "name": "safeTransferFrom",
      "outputs": [],
      "stateMutability": "nonpayable",
      "type": "function"
    },
    {
      "inputs": [
        {
          "internalType": "address",
          "name": "operator",
          "type": "address"
        },
        {
          "internalType": "bool",
          "name": "approved",
          "type": "bool"
        }
      ],
      "name": "setApprovalForAll",
      "outputs": [],
      "stateMutability": "nonpayable",
      "type": "function"
    },
    {
      "inputs": [
        {
          "internalType": "uint256",
          "name": "_mintReserve",
          "type": "uint256"
        }
      ],
      "name": "setReserve",
      "outputs": [],
      "stateMutability": "nonpayable",
      "type": "function"
    },
    {
      "inputs": [
        {
          "internalType": "bytes4",
          "name": "interfaceId",
          "type": "bytes4"
        }
      ],
      "name": "supportsInterface",
      "outputs": [
        {
          "internalType": "bool",
          "name": "",
          "type": "bool"
        }
      ],
      "stateMutability": "view",
      "type": "function"
    },
    {
      "inputs": [],
      "name": "symbol",
      "outputs": [
        {
          "internalType": "string",
          "name": "",
          "type": "string"
        }
      ],
      "stateMutability": "view",
      "type": "function"
    },
    {
      "inputs": [
        {
          "internalType": "uint256",
          "name": "index",
          "type": "uint256"
        }
      ],
      "name": "tokenByIndex",
      "outputs": [
        {
          "internalType": "uint256",
          "name": "",
          "type": "uint256"
        }
      ],
      "stateMutability": "view",
      "type": "function"
    },
    {
      "inputs": [
        {
          "internalType": "address",
          "name": "owner",
          "type": "address"
        },
        {
          "internalType": "uint256",
          "name": "index",
          "type": "uint256"
        }
      ],
      "name": "tokenOfOwnerByIndex",
      "outputs": [
        {
          "internalType": "uint256",
          "name": "",
          "type": "uint256"
        }
      ],
      "stateMutability": "view",
      "type": "function"
    },
    {
      "inputs": [
        {
          "internalType": "uint256",
          "name": "tokenId",
          "type": "uint256"
        }
      ],
      "name": "tokenURI",
      "outputs": [
        {
          "internalType": "string",
          "name": "",
          "type": "string"
        }
      ],
      "stateMutability": "view",
      "type": "function"
    },
    {
      "inputs": [
        {
          "internalType": "uint256",
          "name": "",
          "type": "uint256"
        }
      ],
      "name": "tokenURILocked",
      "outputs": [
        {
          "internalType": "bool",
          "name": "",
          "type": "bool"
        }
      ],
      "stateMutability": "view",
      "type": "function"
    },
    {
      "inputs": [],
      "name": "totalSupply",
      "outputs": [
        {
          "internalType": "uint256",
          "name": "",
          "type": "uint256"
        }
      ],
      "stateMutability": "view",
      "type": "function"
    },
    {
      "inputs": [
        {
          "internalType": "address",
          "name": "from",
          "type": "address"
        },
        {
          "internalType": "address",
          "name": "to",
          "type": "address"
        },
        {
          "internalType": "uint256",
          "name": "tokenId",
          "type": "uint256"
        }
      ],
      "name": "transferFrom",
      "outputs": [],
      "stateMutability": "nonpayable",
      "type": "function"
    },
    {
      "inputs": [
        {
          "internalType": "address",
          "name": "newOwner",
          "type": "address"
        }
      ],
      "name": "transferOwnership",
      "outputs": [],
      "stateMutability": "nonpayable",
      "type": "function"
    },
    {
      "inputs": [
        {
          "internalType": "address",
          "name": "newImplementation",
          "type": "address"
        }
      ],
      "name": "upgradeTo",
      "outputs": [],
      "stateMutability": "nonpayable",
      "type": "function"
    },
    {
      "inputs": [
        {
          "internalType": "address",
          "name": "newImplementation",
          "type": "address"
        },
        {
          "internalType": "bytes",
          "name": "data",
          "type": "bytes"
        }
      ],
      "name": "upgradeToAndCall",
      "outputs": [],
      "stateMutability": "payable",
      "type": "function"
    },
    {
      "inputs": [],
      "name": "withdraw",
      "outputs": [],
      "stateMutability": "nonpayable",
      "type": "function"
    }
  ],
  "bytecode": "0x60a06040523060601b60805234801561001757600080fd5b5060805160601c6146ca61004b60003960008181610c5301528181610ce9015281816112cf015261136501526146ca6000f3fe6080604052600436106102bb5760003560e01c80635fbbc0d21161016e57806395d89b41116100cb578063c8fef7a01161007f578063e985e9c511610064578063e985e9c5146107b2578063f2fde38b14610808578063f9f4995214610828576102bb565b8063c8fef7a014610772578063e757223014610792576102bb565b8063a2f35992116100b0578063a2f3599214610712578063b88d4fde14610732578063c87b56dd14610752576102bb565b806395d89b41146106dd578063a22cb465146106f2576102bb565b8063734f851e1161012257806384c4bd4b1161010757806384c4bd4b1461066c5780638da5cb5b1461068457806395cde8b4146106af576102bb565b8063734f851e146105f45780637d9f6db514610625576102bb565b80636817c76c116101535780636817c76c146105a857806370a08231146105bf578063715018a6146105df576102bb565b80635fbbc0d2146105605780636352211e14610588576102bb565b80633ccfd60b1161021c5780634c261247116101d05780634f6ccce7116101b55780634f6ccce714610512578063556d862814610532578063572849c414610549576102bb565b80634c261247146104df5780634f1ef286146104ff576102bb565b80634256dbe3116102015780634256dbe31461047f57806342842e0e1461049f57806342966c68146104bf576102bb565b80633ccfd60b1461045757806340d097c31461046c576102bb565b806318160ddd116102735780632f745c59116102585780632f745c59146103e55780633659cfe6146104055780633b19e84a14610425576102bb565b806318160ddd146103a557806323b872dd146103c5576102bb565b806306fdde03116102a457806306fdde0314610341578063081812fc14610363578063095ea7b314610383576102bb565b80630150bfdc146102c057806301ffc9a714610311575b600080fd5b3480156102cc57600080fd5b5060015473ffffffffffffffffffffffffffffffffffffffff165b60405173ffffffffffffffffffffffffffffffffffffffff90911681526020015b60405180910390f35b34801561031d57600080fd5b5061033161032c366004614065565b61083b565b6040519015158152602001610308565b34801561034d57600080fd5b5061035661084e565b604051610308919061439c565b34801561036f57600080fd5b506102e761037e3660046141d7565b6108e0565b34801561038f57600080fd5b506103a361039e36600461403a565b6109a5565b005b3480156103b157600080fd5b50610196545b604051908152602001610308565b3480156103d157600080fd5b506103a36103e0366004613f11565b610afe565b3480156103f157600080fd5b506103b761040036600461403a565b610b86565b34801561041157600080fd5b506103a3610420366004613ebd565b610c3b565b34801561043157600080fd5b506102e760005462010000900473ffffffffffffffffffffffffffffffffffffffff1690565b34801561046357600080fd5b506103a3610e0d565b6103a361047a366004613ebd565b610f67565b34801561048b57600080fd5b506103a361049a3660046141d7565b6110ca565b3480156104ab57600080fd5b506103a36104ba366004613f11565b611137565b3480156104cb57600080fd5b506103a36104da3660046141d7565b611152565b3480156104eb57600080fd5b506103a36104fa36600461409d565b6111d6565b6103a361050d366004613fec565b6112b7565b34801561051e57600080fd5b506103b761052d3660046141d7565b61147a565b34801561053e57600080fd5b506103b76101965481565b34801561055557600080fd5b506103b76101975481565b34801561056c57600080fd5b5060025460035460408051928352602083019190915201610308565b34801561059457600080fd5b506102e76105a33660046141d7565b611545565b3480156105b457600080fd5b506103b761019d5481565b3480156105cb57600080fd5b506103b76105da366004613ebd565b6115dd565b3480156105eb57600080fd5b506103a3611691565b34801561060057600080fd5b5061033161060f3660046141d7565b6101946020526000908152604090205460ff1681565b34801561063157600080fd5b506101995461019a5461019b5461019c5461064c9392919084565b604080519485526020850193909352918301526060820152608001610308565b34801561067857600080fd5b50610198546103b79081565b34801561069057600080fd5b5060365473ffffffffffffffffffffffffffffffffffffffff166102e7565b3480156106bb57600080fd5b506103b76106ca366004613ebd565b6101956020526000908152604090205481565b3480156106e957600080fd5b50610356611704565b3480156106fe57600080fd5b506103a361070d366004613fbb565b611713565b34801561071e57600080fd5b506103a361072d36600461403a565b61180c565b34801561073e57600080fd5b506103a361074d366004613f51565b611935565b34801561075e57600080fd5b5061035661076d3660046141d7565b6119bd565b34801561077e57600080fd5b506103a361078d3660046140d0565b611ab6565b34801561079e57600080fd5b506103b76107ad3660046141d7565b611cb1565b3480156107be57600080fd5b506103316107cd366004613ed9565b73ffffffffffffffffffffffffffffffffffffffff9182166000908152609f6020908152604080832093909416825291909152205460ff1690565b34801561081457600080fd5b506103a3610823366004613ebd565b611d62565b6103a361083636600461403a565b611e5b565b600061084682611ff1565b90505b919050565b6060609a805461085d906144aa565b80601f0160208091040260200160405190810160405280929190818152602001828054610889906144aa565b80156108d65780601f106108ab576101008083540402835291602001916108d6565b820191906000526020600020905b8154815290600101906020018083116108b957829003601f168201915b5050505050905090565b6000818152609c602052604081205473ffffffffffffffffffffffffffffffffffffffff1661097c5760405162461bcd60e51b815260206004820152602c60248201527f4552433732313a20617070726f76656420717565727920666f72206e6f6e657860448201527f697374656e7420746f6b656e000000000000000000000000000000000000000060648201526084015b60405180910390fd5b506000908152609e602052604090205473ffffffffffffffffffffffffffffffffffffffff1690565b60006109b082611545565b90508073ffffffffffffffffffffffffffffffffffffffff168373ffffffffffffffffffffffffffffffffffffffff161415610a545760405162461bcd60e51b815260206004820152602160248201527f4552433732313a20617070726f76616c20746f2063757272656e74206f776e6560448201527f72000000000000000000000000000000000000000000000000000000000000006064820152608401610973565b3373ffffffffffffffffffffffffffffffffffffffff82161480610a7d5750610a7d81336107cd565b610aef5760405162461bcd60e51b815260206004820152603860248201527f4552433732313a20617070726f76652063616c6c6572206973206e6f74206f7760448201527f6e6572206e6f7220617070726f76656420666f7220616c6c00000000000000006064820152608401610973565b610af98383612047565b505050565b610b09335b826120e7565b610b7b5760405162461bcd60e51b815260206004820152603160248201527f4552433732313a207472616e736665722063616c6c6572206973206e6f74206f60448201527f776e6572206e6f7220617070726f7665640000000000000000000000000000006064820152608401610973565b610af983838361223d565b6000610b91836115dd565b8210610c055760405162461bcd60e51b815260206004820152602b60248201527f455243373231456e756d657261626c653a206f776e657220696e646578206f7560448201527f74206f6620626f756e64730000000000000000000000000000000000000000006064820152608401610973565b5073ffffffffffffffffffffffffffffffffffffffff91909116600090815260cc60209081526040808320938352929052205490565b3073ffffffffffffffffffffffffffffffffffffffff7f0000000000000000000000000000000000000000000000000000000000000000161415610ce75760405162461bcd60e51b815260206004820152602c60248201527f46756e6374696f6e206d7573742062652063616c6c6564207468726f7567682060448201527f64656c656761746563616c6c00000000000000000000000000000000000000006064820152608401610973565b7f000000000000000000000000000000000000000000000000000000000000000073ffffffffffffffffffffffffffffffffffffffff16610d5c7f360894a13ba1a3210667c828492db98dca3e2076cc3735a920a3ca505d382bbc5473ffffffffffffffffffffffffffffffffffffffff1690565b73ffffffffffffffffffffffffffffffffffffffff1614610de55760405162461bcd60e51b815260206004820152602c60248201527f46756e6374696f6e206d7573742062652063616c6c6564207468726f7567682060448201527f6163746976652070726f787900000000000000000000000000000000000000006064820152608401610973565b610dee8161247b565b60408051600080825260208201909252610e0a918391906124e2565b50565b60365473ffffffffffffffffffffffffffffffffffffffff163314610e745760405162461bcd60e51b815260206004820181905260248201527f4f776e61626c653a2063616c6c6572206973206e6f7420746865206f776e65726044820152606401610973565b600080610e846002546003549091565b909250905047610eaf60005462010000900473ffffffffffffffffffffffffffffffffffffffff1690565b73ffffffffffffffffffffffffffffffffffffffff166108fc6064610ed4868561442a565b610ede9190614416565b6040518115909202916000818181858888f19350505050158015610f06573d6000803e3d6000fd5b5060015473ffffffffffffffffffffffffffffffffffffffff166108fc6064610f2f858561442a565b610f399190614416565b6040518115909202916000818181858888f19350505050158015610f61573d6000803e3d6000fd5b50505050565b61019e5461019654610f799190614467565b6101985410610fca5760405162461bcd60e51b815260206004820152601960248201527f54686572652773206e6f20746f6b656e20746f206d696e742e000000000000006044820152606401610973565b6101975433600090815261019560205260409020541061102c5760405162461bcd60e51b815260206004820181905260248201527f4f6e6520616464726573732063616e206d696e74203130207469636b6574732e6044820152606401610973565b346110376001611cb1565b146110845760405162461bcd60e51b815260206004820152601a60248201527f4d696e74207072696365206973206e6f7420636f72726563742e0000000000006044820152606401610973565b611097816110926101985490565b6126eb565b6110a661019880546001019055565b336000908152610195602052604081208054916110c2836144fe565b919050555050565b60365473ffffffffffffffffffffffffffffffffffffffff1633146111315760405162461bcd60e51b815260206004820181905260248201527f4f776e61626c653a2063616c6c6572206973206e6f7420746865206f776e65726044820152606401610973565b61019e55565b610af983838360405180602001604052806000815250611935565b61115b33610b03565b6111cd5760405162461bcd60e51b815260206004820152603060248201527f4552433732314275726e61626c653a2063616c6c6572206973206e6f74206f7760448201527f6e6572206e6f7220617070726f766564000000000000000000000000000000006064820152608401610973565b610e0a81612705565b60365473ffffffffffffffffffffffffffffffffffffffff16331461123d5760405162461bcd60e51b815260206004820181905260248201527f4f776e61626c653a2063616c6c6572206973206e6f7420746865206f776e65726044820152606401610973565b6101a15460ff16156112915760405162461bcd60e51b815260206004820152601160248201527f416c72656164792072657665616c65642e0000000000000000000000000000006044820152606401610973565b80516112a5906101a0906020840190613d4b565b50506101a1805460ff19166001179055565b3073ffffffffffffffffffffffffffffffffffffffff7f00000000000000000000000000000000000000000000000000000000000000001614156113635760405162461bcd60e51b815260206004820152602c60248201527f46756e6374696f6e206d7573742062652063616c6c6564207468726f7567682060448201527f64656c656761746563616c6c00000000000000000000000000000000000000006064820152608401610973565b7f000000000000000000000000000000000000000000000000000000000000000073ffffffffffffffffffffffffffffffffffffffff166113d87f360894a13ba1a3210667c828492db98dca3e2076cc3735a920a3ca505d382bbc5473ffffffffffffffffffffffffffffffffffffffff1690565b73ffffffffffffffffffffffffffffffffffffffff16146114615760405162461bcd60e51b815260206004820152602c60248201527f46756e6374696f6e206d7573742062652063616c6c6564207468726f7567682060448201527f6163746976652070726f787900000000000000000000000000000000000000006064820152608401610973565b61146a8261247b565b611476828260016124e2565b5050565b600061148560ce5490565b82106114f95760405162461bcd60e51b815260206004820152602c60248201527f455243373231456e756d657261626c653a20676c6f62616c20696e646578206f60448201527f7574206f6620626f756e647300000000000000000000000000000000000000006064820152608401610973565b60ce8281548110611533577f4e487b7100000000000000000000000000000000000000000000000000000000600052603260045260246000fd5b90600052602060002001549050919050565b6000818152609c602052604081205473ffffffffffffffffffffffffffffffffffffffff16806108465760405162461bcd60e51b815260206004820152602960248201527f4552433732313a206f776e657220717565727920666f72206e6f6e657869737460448201527f656e7420746f6b656e00000000000000000000000000000000000000000000006064820152608401610973565b600073ffffffffffffffffffffffffffffffffffffffff82166116685760405162461bcd60e51b815260206004820152602a60248201527f4552433732313a2062616c616e636520717565727920666f7220746865207a6560448201527f726f2061646472657373000000000000000000000000000000000000000000006064820152608401610973565b5073ffffffffffffffffffffffffffffffffffffffff166000908152609d602052604090205490565b60365473ffffffffffffffffffffffffffffffffffffffff1633146116f85760405162461bcd60e51b815260206004820181905260248201527f4f776e61626c653a2063616c6c6572206973206e6f7420746865206f776e65726044820152606401610973565b611702600061270e565b565b6060609b805461085d906144aa565b73ffffffffffffffffffffffffffffffffffffffff82163314156117795760405162461bcd60e51b815260206004820152601960248201527f4552433732313a20617070726f766520746f2063616c6c6572000000000000006044820152606401610973565b336000818152609f6020908152604080832073ffffffffffffffffffffffffffffffffffffffff87168085529252909120805460ff19168415151790559073ffffffffffffffffffffffffffffffffffffffff167f17307eab39ab6107e8899845ad3d59bd9653f200f220920489ca2b5937696c3183604051611800911515815260200190565b60405180910390a35050565b60365473ffffffffffffffffffffffffffffffffffffffff1633146118735760405162461bcd60e51b815260206004820181905260248201527f4f776e61626c653a2063616c6c6572206973206e6f7420746865206f776e65726044820152606401610973565b61019654816118826101985490565b61188c91906143fe565b106118d95760405162461bcd60e51b815260206004820152601960248201527f54686572652773206e6f20746f6b656e20746f206d696e742e000000000000006044820152606401610973565b60005b81811015610af9576118f2836110926101985490565b61190161019880546001019055565b3360009081526101956020526040812080549161191d836144fe565b9190505550808061192d906144fe565b9150506118dc565b61193f33836120e7565b6119b15760405162461bcd60e51b815260206004820152603160248201527f4552433732313a207472616e736665722063616c6c6572206973206e6f74206f60448201527f776e6572206e6f7220617070726f7665640000000000000000000000000000006064820152608401610973565b610f6184848484612785565b6000818152609c602052604090205460609073ffffffffffffffffffffffffffffffffffffffff16611a575760405162461bcd60e51b815260206004820152602f60248201527f4552433732314d657461646174613a2055524920717565727920666f72206e6f60448201527f6e6578697374656e7420746f6b656e00000000000000000000000000000000006064820152608401610973565b6101a15460ff1615611a96576101a0611a6f8361280e565b604051602001611a80929190614271565b6040516020818303038152906040529050610849565b604051806080016040528060458152602001614650604591399050610849565b600054610100900460ff1680611acf575060005460ff16155b611b415760405162461bcd60e51b815260206004820152602e60248201527f496e697469616c697a61626c653a20636f6e747261637420697320616c72656160448201527f647920696e697469616c697a65640000000000000000000000000000000000006064820152608401610973565b600054610100900460ff16158015611b6c576000805460ff1961ff0019909116610100171660011790555b611b788585858561298f565b611b828d8d612bf9565b611b8a612cdf565b611b92612cdf565b611b9a612dc1565b611ba2612e87565b61019d8b90558951610199556020808b015161019a5560408b015161019b5560608b015161019c556101978a90558751611be39161019f91908a0190613d4b565b5061019e88905561019686905585611c3d5760405162461bcd60e51b815260206004820152601d60248201527f546f6b656e537570706c793a2073686f756c64206265206869676865720000006044820152606401610973565b600061019d5411611c905760405162461bcd60e51b815260206004820152601b60248201527f4d696e7450726963653a2073686f756c642062652068696768657200000000006044820152606401610973565b8015611ca2576000805461ff00191690555b50505050505050505050505050565b610199546000904211611d065760405162461bcd60e51b815260206004820152601860248201527f41756374696f6e206e6f742073746172746564207965742e00000000000000006044820152606401610973565b61019a5461019954600091611d3291611d1f9042614467565b611d299190614416565b61019c54612f44565b61019b54909150611d43908261442a565b61019d54611d519190614467565b611d5b908461442a565b9392505050565b60365473ffffffffffffffffffffffffffffffffffffffff163314611dc95760405162461bcd60e51b815260206004820181905260248201527f4f776e61626c653a2063616c6c6572206973206e6f7420746865206f776e65726044820152606401610973565b73ffffffffffffffffffffffffffffffffffffffff8116611e525760405162461bcd60e51b815260206004820152602660248201527f4f776e61626c653a206e6577206f776e657220697320746865207a65726f206160448201527f64647265737300000000000000000000000000000000000000000000000000006064820152608401610973565b610e0a8161270e565b61019e5461019654611e6d9190614467565b81611e786101985490565b611e8291906143fe565b1115611ed05760405162461bcd60e51b815260206004820152601960248201527f54686572652773206e6f20746f6b656e20746f206d696e742e000000000000006044820152606401610973565b610197543360009081526101956020526040902054611ef09083906143fe565b1115611f3e5760405162461bcd60e51b815260206004820181905260248201527f4f6e6520616464726573732063616e206d696e74203130207469636b6574732e6044820152606401610973565b34611f4882611cb1565b14611f955760405162461bcd60e51b815260206004820152601a60248201527f4d696e74207072696365206973206e6f7420636f72726563742e0000000000006044820152606401610973565b60005b81811015610af957611fae836110926101985490565b611fbd61019880546001019055565b33600090815261019560205260408120805491611fd9836144fe565b91905055508080611fe9906144fe565b915050611f98565b60007fffffffff0000000000000000000000000000000000000000000000000000000082167f780e9d63000000000000000000000000000000000000000000000000000000001480610846575061084682612f5a565b6000818152609e6020526040902080547fffffffffffffffffffffffff00000000000000000000000000000000000000001673ffffffffffffffffffffffffffffffffffffffff841690811790915581906120a182611545565b73ffffffffffffffffffffffffffffffffffffffff167f8c5be1e5ebec7d5bd14f71427d1e84f3dd0314c0f7b2291e5b200ac8c7c3b92560405160405180910390a45050565b6000818152609c602052604081205473ffffffffffffffffffffffffffffffffffffffff1661217e5760405162461bcd60e51b815260206004820152602c60248201527f4552433732313a206f70657261746f7220717565727920666f72206e6f6e657860448201527f697374656e7420746f6b656e00000000000000000000000000000000000000006064820152608401610973565b600061218983611545565b90508073ffffffffffffffffffffffffffffffffffffffff168473ffffffffffffffffffffffffffffffffffffffff1614806121f857508373ffffffffffffffffffffffffffffffffffffffff166121e0846108e0565b73ffffffffffffffffffffffffffffffffffffffff16145b80612235575073ffffffffffffffffffffffffffffffffffffffff8082166000908152609f602090815260408083209388168352929052205460ff165b949350505050565b8273ffffffffffffffffffffffffffffffffffffffff1661225d82611545565b73ffffffffffffffffffffffffffffffffffffffff16146122e65760405162461bcd60e51b815260206004820152602960248201527f4552433732313a207472616e73666572206f6620746f6b656e2074686174206960448201527f73206e6f74206f776e00000000000000000000000000000000000000000000006064820152608401610973565b73ffffffffffffffffffffffffffffffffffffffff821661236e5760405162461bcd60e51b8152602060048201526024808201527f4552433732313a207472616e7366657220746f20746865207a65726f2061646460448201527f72657373000000000000000000000000000000000000000000000000000000006064820152608401610973565b61237983838361303d565b612384600082612047565b73ffffffffffffffffffffffffffffffffffffffff83166000908152609d602052604081208054600192906123ba908490614467565b909155505073ffffffffffffffffffffffffffffffffffffffff82166000908152609d602052604081208054600192906123f59084906143fe565b90915550506000818152609c602052604080822080547fffffffffffffffffffffffff00000000000000000000000000000000000000001673ffffffffffffffffffffffffffffffffffffffff86811691821790925591518493918716917fddf252ad1be2c89b69c2b068fc378daa952ba7f163c4a11628f55a4df523b3ef91a4505050565b60365473ffffffffffffffffffffffffffffffffffffffff163314610e0a5760405162461bcd60e51b815260206004820181905260248201527f4f776e61626c653a2063616c6c6572206973206e6f7420746865206f776e65726044820152606401610973565b60006125227f360894a13ba1a3210667c828492db98dca3e2076cc3735a920a3ca505d382bbc5473ffffffffffffffffffffffffffffffffffffffff1690565b905061252d84613048565b60008351118061253a5750815b1561254b576125498484613122565b505b7f4910fdfa16fed3260ed0e7147f7cc6da11a60208b5b9406d12a635614ffd9143805460ff166126e457805460ff1916600117815560405173ffffffffffffffffffffffffffffffffffffffff83166024820152612623908690604401604080517fffffffffffffffffffffffffffffffffffffffffffffffffffffffffffffffe08184030181529190526020810180517bffffffffffffffffffffffffffffffffffffffffffffffffffffffff167f3659cfe600000000000000000000000000000000000000000000000000000000179052613122565b50805460ff191681557f360894a13ba1a3210667c828492db98dca3e2076cc3735a920a3ca505d382bbc5473ffffffffffffffffffffffffffffffffffffffff8381169116146126db5760405162461bcd60e51b815260206004820152602f60248201527f45524331393637557067726164653a207570677261646520627265616b73206660448201527f75727468657220757067726164657300000000000000000000000000000000006064820152608401610973565b6126e485613231565b5050505050565b61147682826040518060200160405280600081525061327e565b610e0a81613307565b6036805473ffffffffffffffffffffffffffffffffffffffff8381167fffffffffffffffffffffffff0000000000000000000000000000000000000000831681179093556040519116919082907f8be0079c531659141344cd1fd0a4f28419497f9722a3daafe3b4186f6b6457e090600090a35050565b61279084848461223d565b61279c848484846133e0565b610f615760405162461bcd60e51b815260206004820152603260248201527f4552433732313a207472616e7366657220746f206e6f6e20455243373231526560448201527f63656976657220696d706c656d656e74657200000000000000000000000000006064820152608401610973565b60608161284f575060408051808201909152600181527f30000000000000000000000000000000000000000000000000000000000000006020820152610849565b8160005b81156128795780612863816144fe565b91506128729050600a83614416565b9150612853565b60008167ffffffffffffffff8111156128bb577f4e487b7100000000000000000000000000000000000000000000000000000000600052604160045260246000fd5b6040519080825280601f01601f1916602001820160405280156128e5576020820181803683370190505b5090505b8415612235576128fa600183614467565b9150612907600a86614537565b6129129060306143fe565b60f81b81838151811061294e577f4e487b7100000000000000000000000000000000000000000000000000000000600052603260045260246000fd5b60200101907effffffffffffffffffffffffffffffffffffffffffffffffffffffffffffff1916908160001a905350612988600a86614416565b94506128e9565b600054610100900460ff16806129a8575060005460ff16155b612a1a5760405162461bcd60e51b815260206004820152602e60248201527f496e697469616c697a61626c653a20636f6e747261637420697320616c72656160448201527f647920696e697469616c697a65640000000000000000000000000000000000006064820152608401610973565b600054610100900460ff16158015612a45576000805460ff1961ff0019909116610100171660011790555b73ffffffffffffffffffffffffffffffffffffffff85163b15612ad05760405162461bcd60e51b815260206004820152602360248201527f54726561737572794e6f64653a2041646472657373206973206120636f6e747260448201527f61637400000000000000000000000000000000000000000000000000000000006064820152608401610973565b73ffffffffffffffffffffffffffffffffffffffff84163b15612b5b5760405162461bcd60e51b815260206004820152602260248201527f43726561746f724e6f64653a2041646472657373206973206120636f6e74726160448201527f63740000000000000000000000000000000000000000000000000000000000006064820152608401610973565b600080547fffffffffffffffffffff0000000000000000000000000000000000000000ffff166201000073ffffffffffffffffffffffffffffffffffffffff8881169190910291909117909155600180547fffffffffffffffffffffffff0000000000000000000000000000000000000000169186169190911790556002839055600382905580156126e4576000805461ff00191690555050505050565b600054610100900460ff1680612c12575060005460ff16155b612c845760405162461bcd60e51b815260206004820152602e60248201527f496e697469616c697a61626c653a20636f6e747261637420697320616c72656160448201527f647920696e697469616c697a65640000000000000000000000000000000000006064820152608401610973565b600054610100900460ff16158015612caf576000805460ff1961ff0019909116610100171660011790555b612cb76135c5565b612cbf6135c5565b612cc9838361368e565b8015610af9576000805461ff0019169055505050565b600054610100900460ff1680612cf8575060005460ff16155b612d6a5760405162461bcd60e51b815260206004820152602e60248201527f496e697469616c697a61626c653a20636f6e747261637420697320616c72656160448201527f647920696e697469616c697a65640000000000000000000000000000000000006064820152608401610973565b600054610100900460ff16158015612d95576000805460ff1961ff0019909116610100171660011790555b612d9d6135c5565b612da56135c5565b612dad6135c5565b8015610e0a576000805461ff001916905550565b600054610100900460ff1680612dda575060005460ff16155b612e4c5760405162461bcd60e51b815260206004820152602e60248201527f496e697469616c697a61626c653a20636f6e747261637420697320616c72656160448201527f647920696e697469616c697a65640000000000000000000000000000000000006064820152608401610973565b600054610100900460ff16158015612e77576000805460ff1961ff0019909116610100171660011790555b612e7f6135c5565b612dad613782565b600054610100900460ff1680612ea0575060005460ff16155b612f125760405162461bcd60e51b815260206004820152602e60248201527f496e697469616c697a61626c653a20636f6e747261637420697320616c72656160448201527f647920696e697469616c697a65640000000000000000000000000000000000006064820152608401610973565b600054610100900460ff16158015612d9d576000805460ff1961ff001990911661010017166001179055612da56135c5565b6000818310612f535781611d5b565b5090919050565b60007fffffffff0000000000000000000000000000000000000000000000000000000082167f80ac58cd000000000000000000000000000000000000000000000000000000001480612fed57507fffffffff0000000000000000000000000000000000000000000000000000000082167f5b5e139f00000000000000000000000000000000000000000000000000000000145b8061084657507f01ffc9a7000000000000000000000000000000000000000000000000000000007fffffffff00000000000000000000000000000000000000000000000000000000831614610846565b610af9838383613841565b803b6130bc5760405162461bcd60e51b815260206004820152602d60248201527f455243313936373a206e657720696d706c656d656e746174696f6e206973206e60448201527f6f74206120636f6e7472616374000000000000000000000000000000000000006064820152608401610973565b7f360894a13ba1a3210667c828492db98dca3e2076cc3735a920a3ca505d382bbc80547fffffffffffffffffffffffff00000000000000000000000000000000000000001673ffffffffffffffffffffffffffffffffffffffff92909216919091179055565b6060823b6131985760405162461bcd60e51b815260206004820152602660248201527f416464726573733a2064656c65676174652063616c6c20746f206e6f6e2d636f60448201527f6e747261637400000000000000000000000000000000000000000000000000006064820152608401610973565b6000808473ffffffffffffffffffffffffffffffffffffffff16846040516131c09190614255565b600060405180830381855af49150503d80600081146131fb576040519150601f19603f3d011682016040523d82523d6000602084013e613200565b606091505b509150915061322882826040518060600160405280602781526020016146296027913961394c565b95945050505050565b61323a81613048565b60405173ffffffffffffffffffffffffffffffffffffffff8216907fbc7cd75a20ee27fd9adebab32041f755214dbc6bffa90cc0225b39da2e5c2d3b90600090a250565b6132888383613985565b61329560008484846133e0565b610af95760405162461bcd60e51b815260206004820152603260248201527f4552433732313a207472616e7366657220746f206e6f6e20455243373231526560448201527f63656976657220696d706c656d656e74657200000000000000000000000000006064820152608401610973565b600061331282611545565b90506133208160008461303d565b61332b600083612047565b73ffffffffffffffffffffffffffffffffffffffff81166000908152609d60205260408120805460019290613361908490614467565b90915550506000828152609c602052604080822080547fffffffffffffffffffffffff00000000000000000000000000000000000000001690555183919073ffffffffffffffffffffffffffffffffffffffff8416907fddf252ad1be2c89b69c2b068fc378daa952ba7f163c4a11628f55a4df523b3ef908390a45050565b600073ffffffffffffffffffffffffffffffffffffffff84163b156135ba576040517f150b7a0200000000000000000000000000000000000000000000000000000000815273ffffffffffffffffffffffffffffffffffffffff85169063150b7a0290613457903390899088908890600401614353565b602060405180830381600087803b15801561347157600080fd5b505af19250505080156134bf575060408051601f3d9081017fffffffffffffffffffffffffffffffffffffffffffffffffffffffffffffffe01682019092526134bc91810190614081565b60015b61356f573d8080156134ed576040519150601f19603f3d011682016040523d82523d6000602084013e6134f2565b606091505b5080516135675760405162461bcd60e51b815260206004820152603260248201527f4552433732313a207472616e7366657220746f206e6f6e20455243373231526560448201527f63656976657220696d706c656d656e74657200000000000000000000000000006064820152608401610973565b805181602001fd5b7fffffffff00000000000000000000000000000000000000000000000000000000167f150b7a0200000000000000000000000000000000000000000000000000000000149050612235565b506001949350505050565b600054610100900460ff16806135de575060005460ff16155b6136505760405162461bcd60e51b815260206004820152602e60248201527f496e697469616c697a61626c653a20636f6e747261637420697320616c72656160448201527f647920696e697469616c697a65640000000000000000000000000000000000006064820152608401610973565b600054610100900460ff16158015612dad576000805460ff1961ff0019909116610100171660011790558015610e0a576000805461ff001916905550565b600054610100900460ff16806136a7575060005460ff16155b6137195760405162461bcd60e51b815260206004820152602e60248201527f496e697469616c697a61626c653a20636f6e747261637420697320616c72656160448201527f647920696e697469616c697a65640000000000000000000000000000000000006064820152608401610973565b600054610100900460ff16158015613744576000805460ff1961ff0019909116610100171660011790555b825161375790609a906020860190613d4b565b50815161376b90609b906020850190613d4b565b508015610af9576000805461ff0019169055505050565b600054610100900460ff168061379b575060005460ff16155b61380d5760405162461bcd60e51b815260206004820152602e60248201527f496e697469616c697a61626c653a20636f6e747261637420697320616c72656160448201527f647920696e697469616c697a65640000000000000000000000000000000000006064820152608401610973565b600054610100900460ff16158015613838576000805460ff1961ff0019909116610100171660011790555b612dad3361270e565b73ffffffffffffffffffffffffffffffffffffffff83166138a9576138a48160ce8054600083815260cf60205260408120829055600182018355919091527fd36cd1c74ef8d7326d8021b776c18fb5a5724b7f7bc93c2f42e43e10ef27d12a0155565b6138e6565b8173ffffffffffffffffffffffffffffffffffffffff168373ffffffffffffffffffffffffffffffffffffffff16146138e6576138e68382613b1f565b73ffffffffffffffffffffffffffffffffffffffff821661390f5761390a81613bd6565b610af9565b8273ffffffffffffffffffffffffffffffffffffffff168273ffffffffffffffffffffffffffffffffffffffff1614610af957610af98282613cfa565b6060831561395b575081611d5b565b82511561396b5782518084602001fd5b8160405162461bcd60e51b8152600401610973919061439c565b73ffffffffffffffffffffffffffffffffffffffff82166139e85760405162461bcd60e51b815260206004820181905260248201527f4552433732313a206d696e7420746f20746865207a65726f20616464726573736044820152606401610973565b6000818152609c602052604090205473ffffffffffffffffffffffffffffffffffffffff1615613a5a5760405162461bcd60e51b815260206004820152601c60248201527f4552433732313a20746f6b656e20616c7265616479206d696e746564000000006044820152606401610973565b613a666000838361303d565b73ffffffffffffffffffffffffffffffffffffffff82166000908152609d60205260408120805460019290613a9c9084906143fe565b90915550506000818152609c602052604080822080547fffffffffffffffffffffffff00000000000000000000000000000000000000001673ffffffffffffffffffffffffffffffffffffffff861690811790915590518392907fddf252ad1be2c89b69c2b068fc378daa952ba7f163c4a11628f55a4df523b3ef908290a45050565b60006001613b2c846115dd565b613b369190614467565b600083815260cd6020526040902054909150808214613b965773ffffffffffffffffffffffffffffffffffffffff8416600090815260cc60209081526040808320858452825280832054848452818420819055835260cd90915290208190555b50600091825260cd6020908152604080842084905573ffffffffffffffffffffffffffffffffffffffff909416835260cc81528383209183525290812055565b60ce54600090613be890600190614467565b600083815260cf602052604081205460ce8054939450909284908110613c37577f4e487b7100000000000000000000000000000000000000000000000000000000600052603260045260246000fd5b906000526020600020015490508060ce8381548110613c7f577f4e487b7100000000000000000000000000000000000000000000000000000000600052603260045260246000fd5b600091825260208083209091019290925582815260cf909152604080822084905585825281205560ce805480613cde577f4e487b7100000000000000000000000000000000000000000000000000000000600052603160045260246000fd5b6001900381819060005260206000200160009055905550505050565b6000613d05836115dd565b73ffffffffffffffffffffffffffffffffffffffff909316600090815260cc60209081526040808320868452825280832085905593825260cd9052919091209190915550565b828054613d57906144aa565b90600052602060002090601f016020900481019282613d795760008555613dbf565b82601f10613d9257805160ff1916838001178555613dbf565b82800160010185558215613dbf579182015b82811115613dbf578251825591602001919060010190613da4565b50613dcb929150613dcf565b5090565b5b80821115613dcb5760008155600101613dd0565b8035610849816145d8565b600082601f830112613dff578081fd5b813567ffffffffffffffff811115613e1957613e196145a9565b613e4a60207fffffffffffffffffffffffffffffffffffffffffffffffffffffffffffffffe0601f840116016143af565b818152846020838601011115613e5e578283fd5b816020850160208301379081016020019190915292915050565b600060808284031215613e89578081fd5b613e9360806143af565b90508135815260208201356020820152604082013560408201526060820135606082015292915050565b600060208284031215613ece578081fd5b8135611d5b816145d8565b60008060408385031215613eeb578081fd5b8235613ef6816145d8565b91506020830135613f06816145d8565b809150509250929050565b600080600060608486031215613f25578081fd5b8335613f30816145d8565b92506020840135613f40816145d8565b929592945050506040919091013590565b60008060008060808587031215613f66578081fd5b8435613f71816145d8565b93506020850135613f81816145d8565b925060408501359150606085013567ffffffffffffffff811115613fa3578182fd5b613faf87828801613def565b91505092959194509250565b60008060408385031215613fcd578182fd5b8235613fd8816145d8565b915060208301358015158114613f06578182fd5b60008060408385031215613ffe578182fd5b8235614009816145d8565b9150602083013567ffffffffffffffff811115614024578182fd5b61403085828601613def565b9150509250929050565b6000806040838503121561404c578182fd5b8235614057816145d8565b946020939093013593505050565b600060208284031215614076578081fd5b8135611d5b816145fa565b600060208284031215614092578081fd5b8151611d5b816145fa565b6000602082840312156140ae578081fd5b813567ffffffffffffffff8111156140c4578182fd5b61223584828501613def565b6000806000806000806000806000806000806101e08d8f0312156140f2578788fd5b67ffffffffffffffff8d351115614107578788fd5b6141148e8e358f01613def565b9b5067ffffffffffffffff60208e0135111561412e578788fd5b61413e8e60208f01358f01613def565b9a5060408d013599506141548e60608f01613e78565b985060e08d013597506101008d0135965067ffffffffffffffff6101208e0135111561417e578586fd5b61418f8e6101208f01358f01613def565b95506101408d013594506141a66101608e01613de4565b93506141b56101808e01613de4565b92506101a08d013591506101c08d013590509295989b509295989b509295989b565b6000602082840312156141e8578081fd5b5035919050565b6000815180845261420781602086016020860161447e565b601f017fffffffffffffffffffffffffffffffffffffffffffffffffffffffffffffffe0169290920160200192915050565b6000815161424b81856020860161447e565b9290920192915050565b6000825161426781846020870161447e565b9190910192915050565b825460009081906002810460018083168061428d57607f831692505b60208084108214156142c6577f4e487b710000000000000000000000000000000000000000000000000000000087526022600452602487fd5b8180156142da57600181146142eb57614317565b60ff19861689528489019650614317565b60008b815260209020885b8681101561430f5781548b8201529085019083016142f6565b505084890196505b50505050505061322861432a8286614239565b7f2e6a736f6e000000000000000000000000000000000000000000000000000000815260050190565b600073ffffffffffffffffffffffffffffffffffffffff80871683528086166020840152508360408301526080606083015261439260808301846141ef565b9695505050505050565b600060208252611d5b60208301846141ef565b604051601f82017fffffffffffffffffffffffffffffffffffffffffffffffffffffffffffffffe016810167ffffffffffffffff811182821017156143f6576143f66145a9565b604052919050565b600082198211156144115761441161454b565b500190565b6000826144255761442561457a565b500490565b6000817fffffffffffffffffffffffffffffffffffffffffffffffffffffffffffffffff04831182151516156144625761446261454b565b500290565b6000828210156144795761447961454b565b500390565b60005b83811015614499578181015183820152602001614481565b83811115610f615750506000910152565b6002810460018216806144be57607f821691505b602082108114156144f8577f4e487b7100000000000000000000000000000000000000000000000000000000600052602260045260246000fd5b50919050565b60007fffffffffffffffffffffffffffffffffffffffffffffffffffffffffffffffff8214156145305761453061454b565b5060010190565b6000826145465761454661457a565b500690565b7f4e487b7100000000000000000000000000000000000000000000000000000000600052601160045260246000fd5b7f4e487b7100000000000000000000000000000000000000000000000000000000600052601260045260246000fd5b7f4e487b7100000000000000000000000000000000000000000000000000000000600052604160045260246000fd5b73ffffffffffffffffffffffffffffffffffffffff81168114610e0a57600080fd5b7fffffffff0000000000000000000000000000000000000000000000000000000081168114610e0a57600080fdfe416464726573733a206c6f772d6c6576656c2064656c65676174652063616c6c206661696c6564697066733a2f2f516d50666b6756326a34616269387943696145474455706b50544b5a68635a3343414e565770334c5377557845642f756e72657665616c65642e6a736f6ea2646970667358221220050def0a4aba01ed7fedeea71d2ac692a4f1eea3a5dbfe48ec248e4736fa99e164736f6c63430008020033",
  "linkReferences": {},
  "deployedLinkReferences": {}
}